{
    "abi": [
        {
            "type": "constructor",
            "inputs": [],
            "stateMutability": "nonpayable"
        },
        {
            "type": "function",
            "name": "getModel",
            "inputs": [
                {
                    "name": "_modelId",
                    "type": "uint256",
                    "internalType": "uint256"
                }
            ],
            "outputs": [
                {
                    "name": "",
                    "type": "uint256",
                    "internalType": "uint256"
                },
                {
                    "name": "",
                    "type": "string",
                    "internalType": "string"
                },
                {
                    "name": "",
                    "type": "string",
                    "internalType": "string"
                },
                {
                    "name": "",
                    "type": "string",
                    "internalType": "string"
                },
                {
                    "name": "",
                    "type": "string",
                    "internalType": "string"
                },
                {
                    "name": "",
                    "type": "string",
                    "internalType": "string"
                }
            ],
            "stateMutability": "nonpayable"
        },
        {
            "type": "function",
            "name": "getModelCount",
            "inputs": [],
            "outputs": [
                {
                    "name": "",
                    "type": "uint256",
                    "internalType": "uint256"
                }
            ],
            "stateMutability": "view"
        },
        {
            "type": "function",
            "name": "getOwner",
            "inputs": [],
            "outputs": [
                {
                    "name": "",
                    "type": "address",
                    "internalType": "address"
                }
            ],
            "stateMutability": "view"
        },
        {
            "type": "function",
            "name": "modelCount",
            "inputs": [],
            "outputs": [
                {
                    "name": "",
                    "type": "uint256",
                    "internalType": "uint256"
                }
            ],
            "stateMutability": "view"
        },
        {
            "type": "function",
            "name": "models",
            "inputs": [
                {
                    "name": "",
                    "type": "uint256",
                    "internalType": "uint256"
                }
            ],
            "outputs": [
                {
                    "name": "modelId",
                    "type": "uint256",
                    "internalType": "uint256"
                },
                {
                    "name": "modelHash",
                    "type": "string",
                    "internalType": "string"
                },
                {
                    "name": "modelName",
                    "type": "string",
                    "internalType": "string"
                },
                {
                    "name": "modelAbstract",
                    "type": "string",
                    "internalType": "string"
                },
                {
                    "name": "catagory",
                    "type": "string",
                    "internalType": "string"
                },
                {
                    "name": "endpoint",
                    "type": "string",
                    "internalType": "string"
                }
            ],
            "stateMutability": "view"
        },
        {
            "type": "function",
            "name": "owner",
            "inputs": [],
            "outputs": [
                {
                    "name": "",
                    "type": "address",
                    "internalType": "address"
                }
            ],
            "stateMutability": "view"
        },
        {
            "type": "function",
            "name": "registerModel",
            "inputs": [
                {
                    "name": "_modelHash",
                    "type": "string",
                    "internalType": "string"
                },
                {
                    "name": "_modelName",
                    "type": "string",
                    "internalType": "string"
                },
                {
                    "name": "_modelAbstract",
                    "type": "string",
                    "internalType": "string"
                },
                {
                    "name": "_catagory",
                    "type": "string",
                    "internalType": "string"
                },
                {
                    "name": "_endpoint",
                    "type": "string",
                    "internalType": "string"
                }
            ],
            "outputs": [],
            "stateMutability": "nonpayable"
        },
        {
            "type": "function",
            "name": "updateCount",
            "inputs": [],
            "outputs": [
                {
                    "name": "",
                    "type": "uint256",
                    "internalType": "uint256"
                }
            ],
            "stateMutability": "view"
        },
        {
            "type": "function",
            "name": "updateModel",
            "inputs": [
                {
                    "name": "_modelId",
                    "type": "uint256",
                    "internalType": "uint256"
                },
                {
                    "name": "_update",
                    "type": "bytes",
                    "internalType": "bytes"
                }
            ],
            "outputs": [],
            "stateMutability": "nonpayable"
        },
        {
            "type": "function",
            "name": "updates",
            "inputs": [
                {
                    "name": "",
                    "type": "uint256",
                    "internalType": "uint256"
                }
            ],
            "outputs": [
                {
                    "name": "user",
                    "type": "address",
                    "internalType": "address"
                },
                {
                    "name": "modelId",
                    "type": "uint256",
                    "internalType": "uint256"
                },
                {
                    "name": "update",
                    "type": "bytes",
                    "internalType": "bytes"
                }
            ],
            "stateMutability": "view"
        },
        {
            "type": "event",
            "name": "ModelCount",
            "inputs": [
                {
                    "name": "count",
                    "type": "uint256",
                    "indexed": false,
                    "internalType": "uint256"
                }
            ],
            "anonymous": false
        },
        {
            "type": "event",
            "name": "ModelRetrieved",
            "inputs": [
                {
                    "name": "modelId",
                    "type": "uint256",
                    "indexed": true,
                    "internalType": "uint256"
                },
                {
                    "name": "modelHash",
                    "type": "string",
                    "indexed": false,
                    "internalType": "string"
                },
                {
                    "name": "modelName",
                    "type": "string",
                    "indexed": true,
                    "internalType": "string"
                },
                {
                    "name": "modelAbstract",
                    "type": "string",
                    "indexed": false,
                    "internalType": "string"
                },
                {
                    "name": "catagory",
                    "type": "string",
                    "indexed": false,
                    "internalType": "string"
                },
                {
                    "name": "endpoint",
                    "type": "string",
                    "indexed": true,
                    "internalType": "string"
                }
            ],
            "anonymous": false
        }
    ],
    "bytecode": {
        "object": "0x608060405234801561001057600080fd5b50600080546001600160a01b03191633179055610f19806100326000396000f3fe608060405234801561001057600080fd5b506004361061009e5760003560e01c80638da5cb5b116100665780638da5cb5b14610120578063b4c2f72714610133578063c6a645fe14610155578063d61da4411461015e578063f14cbe7d1461017357600080fd5b80634989dbb0146100a357806369b4ecc9146100ba5780636a030ca9146100c35780636d361694146100e8578063893d20e8146100fb575b600080fd5b6003545b6040519081526020015b60405180910390f35b6100a760045481565b6100d66100d1366004610a25565b610186565b6040516100b196959493929190610a8e565b6100d66100f6366004610a25565b610462565b6000546001600160a01b03165b6040516001600160a01b0390911681526020016100b1565b600054610108906001600160a01b031681565b610146610141366004610a25565b610819565b6040516100b193929190610b02565b6100a760035481565b61017161016c366004610bbe565b6108d0565b005b610171610181366004610c40565b61094f565b6001602081905260009182526040909120805491810180546101a790610d12565b80601f01602080910402602001604051908101604052809291908181526020018280546101d390610d12565b80156102205780601f106101f557610100808354040283529160200191610220565b820191906000526020600020905b81548152906001019060200180831161020357829003601f168201915b50505050509080600201805461023590610d12565b80601f016020809104026020016040519081016040528092919081815260200182805461026190610d12565b80156102ae5780601f10610283576101008083540402835291602001916102ae565b820191906000526020600020905b81548152906001019060200180831161029157829003601f168201915b5050505050908060030180546102c390610d12565b80601f01602080910402602001604051908101604052809291908181526020018280546102ef90610d12565b801561033c5780601f106103115761010080835404028352916020019161033c565b820191906000526020600020905b81548152906001019060200180831161031f57829003601f168201915b50505050509080600401805461035190610d12565b80601f016020809104026020016040519081016040528092919081815260200182805461037d90610d12565b80156103ca5780601f1061039f576101008083540402835291602001916103ca565b820191906000526020600020905b8154815290600101906020018083116103ad57829003601f168201915b5050505050908060050180546103df90610d12565b80601f016020809104026020016040519081016040528092919081815260200182805461040b90610d12565b80156104585780601f1061042d57610100808354040283529160200191610458565b820191906000526020600020905b81548152906001019060200180831161043b57829003601f168201915b5050505050905086565b600081815260016020819052604082208054910180546060928392839283928392909188919061049190610d12565b80601f01602080910402602001604051908101604052809291908181526020018280546104bd90610d12565b801561050a5780601f106104df5761010080835404028352916020019161050a565b820191906000526020600020905b8154815290600101906020018083116104ed57829003601f168201915b505050505090506000600160008b8152602001908152602001600020600201805461053490610d12565b80601f016020809104026020016040519081016040528092919081815260200182805461056090610d12565b80156105ad5780601f10610582576101008083540402835291602001916105ad565b820191906000526020600020905b81548152906001019060200180831161059057829003601f168201915b505050505090506000600160008c815260200190815260200160002060030180546105d790610d12565b80601f016020809104026020016040519081016040528092919081815260200182805461060390610d12565b80156106505780601f1061062557610100808354040283529160200191610650565b820191906000526020600020905b81548152906001019060200180831161063357829003601f168201915b505050505090506000600160008d8152602001908152602001600020600401805461067a90610d12565b80601f01602080910402602001604051908101604052809291908181526020018280546106a690610d12565b80156106f35780601f106106c8576101008083540402835291602001916106f3565b820191906000526020600020905b8154815290600101906020018083116106d657829003601f168201915b505050505090506000600160008e8152602001908152602001600020600501805461071d90610d12565b80601f016020809104026020016040519081016040528092919081815260200182805461074990610d12565b80156107965780601f1061076b57610100808354040283529160200191610796565b820191906000526020600020905b81548152906001019060200180831161077957829003601f168201915b50505050509050806040516107ab9190610d4c565b6040518091039020846040516107c19190610d4c565b6040518091039020877ffdad37390b9d8f6860bece94fe5ccebcc1819e04fc9f2c9a70c1b40298fb01a78887876040516107fd93929190610d68565b60405180910390a4949c939b5091995097509550909350915050565b60026020819052600091825260409091208054600182015492820180546001600160a01b0390921693929161084d90610d12565b80601f016020809104026020016040519081016040528092919081815260200182805461087990610d12565b80156108c65780601f1061089b576101008083540402835291602001916108c6565b820191906000526020600020905b8154815290600101906020018083116108a957829003601f168201915b5050505050905083565b600480549060006108e083610dab565b9091555050604080516060810182523381526020808201858152828401858152600454600090815260029384905294909420835181546001600160a01b0319166001600160a01b03909116178155905160018201559251919291908201906109489082610e23565b5050505050565b6003805490600061095f83610dab565b91905055506040518060c001604052806003548152602001868152602001858152602001848152602001838152602001828152506001600060035481526020019081526020016000206000820151816000015560208201518160010190816109c79190610e23565b50604082015160028201906109dc9082610e23565b50606082015160038201906109f19082610e23565b5060808201516004820190610a069082610e23565b5060a08201516005820190610a1b9082610e23565b5050505050505050565b600060208284031215610a3757600080fd5b5035919050565b60005b83811015610a59578181015183820152602001610a41565b50506000910152565b60008151808452610a7a816020860160208601610a3e565b601f01601f19169290920160200192915050565b86815260c060208201526000610aa760c0830188610a62565b8281036040840152610ab98188610a62565b90508281036060840152610acd8187610a62565b90508281036080840152610ae18186610a62565b905082810360a0840152610af58185610a62565b9998505050505050505050565b60018060a01b0384168152826020820152606060408201526000610b296060830184610a62565b95945050505050565b634e487b7160e01b600052604160045260246000fd5b600067ffffffffffffffff80841115610b6357610b63610b32565b604051601f8501601f19908116603f01168101908282118183101715610b8b57610b8b610b32565b81604052809350858152868686011115610ba457600080fd5b858560208301376000602087830101525050509392505050565b60008060408385031215610bd157600080fd5b82359150602083013567ffffffffffffffff811115610bef57600080fd5b8301601f81018513610c0057600080fd5b610c0f85823560208401610b48565b9150509250929050565b600082601f830112610c2a57600080fd5b610c3983833560208501610b48565b9392505050565b600080600080600060a08688031215610c5857600080fd5b853567ffffffffffffffff80821115610c7057600080fd5b610c7c89838a01610c19565b96506020880135915080821115610c9257600080fd5b610c9e89838a01610c19565b95506040880135915080821115610cb457600080fd5b610cc089838a01610c19565b94506060880135915080821115610cd657600080fd5b610ce289838a01610c19565b93506080880135915080821115610cf857600080fd5b50610d0588828901610c19565b9150509295509295909350565b600181811c90821680610d2657607f821691505b602082108103610d4657634e487b7160e01b600052602260045260246000fd5b50919050565b60008251610d5e818460208701610a3e565b9190910192915050565b606081526000610d7b6060830186610a62565b8281036020840152610d8d8186610a62565b90508281036040840152610da18185610a62565b9695505050505050565b600060018201610dcb57634e487b7160e01b600052601160045260246000fd5b5060010190565b601f821115610e1e576000816000526020600020601f850160051c81016020861015610dfb5750805b601f850160051c820191505b81811015610e1a57828155600101610e07565b5050505b505050565b815167ffffffffffffffff811115610e3d57610e3d610b32565b610e5181610e4b8454610d12565b84610dd2565b602080601f831160018114610e865760008415610e6e5750858301515b600019600386901b1c1916600185901b178555610e1a565b600085815260208120601f198616915b82811015610eb557888601518255948401946001909101908401610e96565b5085821015610ed35787850151600019600388901b60f8161c191681555b5050505050600190811b0190555056fea264697066735822122047a54cd97d9073f0c5c93e2455393dacfa721e60c75f6abffffb690b4394d74564736f6c63430008170033",
        "linkReferences": {}
    },
    "methodIdentifiers": {
        "getModel(uint256)": "6d361694",
        "getModelCount()": "4989dbb0",
        "getOwner()": "893d20e8",
        "modelCount()": "c6a645fe",
        "models(uint256)": "6a030ca9",
        "owner()": "8da5cb5b",
        "registerModel(string,string,string,string,string)": "f14cbe7d",
        "updateCount()": "69b4ecc9",
        "updateModel(uint256,bytes)": "d61da441",
        "updates(uint256)": "b4c2f727"
    },
    "id": 0
}